:100000000C942A000C945F000C945F000C945F0029
:100010000C945F000C945F000C945F000C945F00E4
:100020000C945F000C945F000C945F000C945F00D4
:100030000C945F000C945F000C945F000C945F00C4
:100040000C945F000C945F000C945F000C945F00B4
:100050000C945F0011241FBECFE5D8E0DEBFCDBFFA
:0C0060000E9436000C944E00F894FFCF74
:10006C0082EF81BB1BB888E18AB986E880BD83E347
:10007C0089B98FEF84BB80E487BB8CE48DB9C1E474
:10008C001FB8CFB9779BFECF8FB10E945900F8CF24
:10009C00EC010E9464000E946300CE010E94650086
:0600AC00CE010E9461007C
:0C00B2008CB95E9BFECF80E48BB90895F2
:0400BE000C9400009E
:0400C2000E94340064
:0200C60008959B
:0200C800089599
:0200CA00089597
:00000001FF
